{
  "contractName": "Course",
  "abi": [
    {
      "constant": false,
      "inputs": [
        {
          "internalType": "string",
          "name": "_courseKey",
          "type": "string"
        },
        {
          "internalType": "string",
          "name": "_sectionKey",
          "type": "string"
        },
        {
          "internalType": "string",
          "name": "_hash",
          "type": "string"
        },
        {
          "internalType": "string",
          "name": "_data",
          "type": "string"
        }
      ],
      "name": "InsertNewSectionsData",
      "outputs": [],
      "payable": false,
      "stateMutability": "nonpayable",
      "type": "function"
    },
    {
      "constant": true,
      "inputs": [
        {
          "internalType": "string",
          "name": "_courseKey",
          "type": "string"
        },
        {
          "internalType": "string",
          "name": "_sectionKey",
          "type": "string"
        }
      ],
      "name": "GetHash",
      "outputs": [
        {
          "internalType": "string",
          "name": "",
          "type": "string"
        }
      ],
      "payable": false,
      "stateMutability": "view",
      "type": "function"
    },
    {
      "constant": true,
      "inputs": [
        {
          "internalType": "string",
          "name": "_courseKey",
          "type": "string"
        },
        {
          "internalType": "string",
          "name": "_sectionKey",
          "type": "string"
        }
      ],
      "name": "GetMarksRecord",
      "outputs": [
        {
          "internalType": "string",
          "name": "",
          "type": "string"
        }
      ],
      "payable": false,
      "stateMutability": "view",
      "type": "function"
    }
  ],
  "bytecode": "0x608060405234801561001057600080fd5b50611549806100206000396000f3fe608060405234801561001057600080fd5b50600436106100415760003560e01c80635ecf2d7914610046578063608389381461018d57806374bf192414610305575b600080fd5b6101126004803603604081101561005c57600080fd5b810190808035906020019064010000000081111561007957600080fd5b82018360208201111561008b57600080fd5b803590602001918460018302840111640100000000831117156100ad57600080fd5b9091929391929390803590602001906401000000008111156100ce57600080fd5b8201836020820111156100e057600080fd5b8035906020019184600183028401116401000000008311171561010257600080fd5b909192939192939050505061044c565b6040518080602001828103825283818151815260200191508051906020019080838360005b83811015610152578082015181840152602081019050610137565b50505050905090810190601f16801561017f5780820380516001836020036101000a031916815260200191505b509250505060405180910390f35b610303600480360360808110156101a357600080fd5b81019080803590602001906401000000008111156101c057600080fd5b8201836020820111156101d257600080fd5b803590602001918460018302840111640100000000831117156101f457600080fd5b90919293919293908035906020019064010000000081111561021557600080fd5b82018360208201111561022757600080fd5b8035906020019184600183028401116401000000008311171561024957600080fd5b90919293919293908035906020019064010000000081111561026a57600080fd5b82018360208201111561027c57600080fd5b8035906020019184600183028401116401000000008311171561029e57600080fd5b9091929391929390803590602001906401000000008111156102bf57600080fd5b8201836020820111156102d157600080fd5b803590602001918460018302840111640100000000831117156102f357600080fd5b90919293919293905050506106b6565b005b6103d16004803603604081101561031b57600080fd5b810190808035906020019064010000000081111561033857600080fd5b82018360208201111561034a57600080fd5b8035906020019184600183028401116401000000008311171561036c57600080fd5b90919293919293908035906020019064010000000081111561038d57600080fd5b82018360208201111561039f57600080fd5b803590602001918460018302840111640100000000831117156103c157600080fd5b9091929391929390505050610a1f565b6040518080602001828103825283818151815260200191508051906020019080838360005b838110156104115780820151818401526020810190506103f6565b50505050905090810190601f16801561043e5780820380516001836020036101000a031916815260200191505b509250505060405180910390f35b6060600073ffffffffffffffffffffffffffffffffffffffff1660008686604051808383808284378083019250505092505050908152602001604051809103902060009054906101000a900473ffffffffffffffffffffffffffffffffffffffff1673ffffffffffffffffffffffffffffffffffffffff1614610692576000808686604051808383808284378083019250505092505050908152602001604051809103902060009054906101000a900473ffffffffffffffffffffffffffffffffffffffff1690508073ffffffffffffffffffffffffffffffffffffffff166377ad6ed585856040518363ffffffff1660e01b815260040180806020018281038252848482818152602001925080828437600081840152601f19601f820116905080830192505050935050505060006040518083038186803b15801561059157600080fd5b505afa1580156105a5573d6000803e3d6000fd5b505050506040513d6000823e3d601f19601f8201168201806040525060208110156105cf57600080fd5b81019080805160405193929190846401000000008211156105ef57600080fd5b8382019150602082018581111561060557600080fd5b825186600182028301116401000000008211171561062257600080fd5b8083526020830192505050908051906020019080838360005b8381101561065657808201518184015260208101905061063b565b50505050905090810190601f1680156106835780820380516001836020036101000a031916815260200191505b506040525050509150506106ae565b6040518060600160405280602181526020016114f46021913990505b949350505050565b600073ffffffffffffffffffffffffffffffffffffffff1660008989604051808383808284378083019250505092505050908152602001604051809103902060009054906101000a900473ffffffffffffffffffffffffffffffffffffffff1673ffffffffffffffffffffffffffffffffffffffff1614610881576000808989604051808383808284378083019250505092505050908152602001604051809103902060009054906101000a900473ffffffffffffffffffffffffffffffffffffffff1690508073ffffffffffffffffffffffffffffffffffffffff16630af7b84a8888888888886040518763ffffffff1660e01b81526004018080602001806020018060200184810384528a8a82818152602001925080828437600081840152601f19601f8201169050808301925050508481038352888882818152602001925080828437600081840152601f19601f8201169050808301925050508481038252868682818152602001925080828437600081840152601f19601f8201169050808301925050509950505050505050505050600060405180830381600087803b15801561086357600080fd5b505af1158015610877573d6000803e3d6000fd5b5050505050610a15565b600060405161088f90610c89565b604051809103906000f0801580156108ab573d6000803e3d6000fd5b5090508073ffffffffffffffffffffffffffffffffffffffff16630af7b84a8888888888886040518763ffffffff1660e01b81526004018080602001806020018060200184810384528a8a82818152602001925080828437600081840152601f19601f8201169050808301925050508481038352888882818152602001925080828437600081840152601f19601f8201169050808301925050508481038252868682818152602001925080828437600081840152601f19601f8201169050808301925050509950505050505050505050600060405180830381600087803b15801561099557600080fd5b505af11580156109a9573d6000803e3d6000fd5b505050508060008a8a604051808383808284378083019250505092505050908152602001604051809103902060006101000a81548173ffffffffffffffffffffffffffffffffffffffff021916908373ffffffffffffffffffffffffffffffffffffffff160217905550505b5050505050505050565b6060600073ffffffffffffffffffffffffffffffffffffffff1660008686604051808383808284378083019250505092505050908152602001604051809103902060009054906101000a900473ffffffffffffffffffffffffffffffffffffffff1673ffffffffffffffffffffffffffffffffffffffff1614610c65576000808686604051808383808284378083019250505092505050908152602001604051809103902060009054906101000a900473ffffffffffffffffffffffffffffffffffffffff1690508073ffffffffffffffffffffffffffffffffffffffff1663c2164dce85856040518363ffffffff1660e01b815260040180806020018281038252848482818152602001925080828437600081840152601f19601f820116905080830192505050935050505060006040518083038186803b158015610b6457600080fd5b505afa158015610b78573d6000803e3d6000fd5b505050506040513d6000823e3d601f19601f820116820180604052506020811015610ba257600080fd5b8101908080516040519392919084640100000000821115610bc257600080fd5b83820191506020820185811115610bd857600080fd5b8251866001820283011164010000000082111715610bf557600080fd5b8083526020830192505050908051906020019080838360005b83811015610c29578082015181840152602081019050610c0e565b50505050905090810190601f168015610c565780820380516001836020036101000a031916815260200191505b50604052505050915050610c81565b6040518060600160405280602181526020016114f46021913990505b949350505050565b61085d80610c978339019056fe608060405234801561001057600080fd5b5061083d806100206000396000f3fe608060405234801561001057600080fd5b50600436106100415760003560e01c80630af7b84a1461004657806377ad6ed514610169578063c2164dce1461025b575b600080fd5b6101676004803603606081101561005c57600080fd5b810190808035906020019064010000000081111561007957600080fd5b82018360208201111561008b57600080fd5b803590602001918460018302840111640100000000831117156100ad57600080fd5b9091929391929390803590602001906401000000008111156100ce57600080fd5b8201836020820111156100e057600080fd5b8035906020019184600183028401116401000000008311171561010257600080fd5b90919293919293908035906020019064010000000081111561012357600080fd5b82018360208201111561013557600080fd5b8035906020019184600183028401116401000000008311171561015757600080fd5b909192939192939050505061034d565b005b6101e06004803603602081101561017f57600080fd5b810190808035906020019064010000000081111561019c57600080fd5b8201836020820111156101ae57600080fd5b803590602001918460018302840111640100000000831117156101d057600080fd5b90919293919293905050506103c3565b6040518080602001828103825283818151815260200191508051906020019080838360005b83811015610220578082015181840152602081019050610205565b50505050905090810190601f16801561024d5780820380516001836020036101000a031916815260200191505b509250505060405180910390f35b6102d26004803603602081101561027157600080fd5b810190808035906020019064010000000081111561028e57600080fd5b8201836020820111156102a057600080fd5b803590602001918460018302840111640100000000831117156102c257600080fd5b9091929391929390505050610593565b6040518080602001828103825283818151815260200191508051906020019080838360005b838110156103125780820151818401526020810190506102f7565b50505050905090810190601f16801561033f5780820380516001836020036101000a031916815260200191505b509250505060405180910390f35b83836002888860405180838380828437808301925050509250505090815260200160405180910390209190610383929190610763565b50818160038888604051808383808284378083019250505092505050908152602001604051809103902091906103ba929190610763565b50505050505050565b606060405160200180600001905060405160208183030381529060405280519060200120600284846040518083838082843780830192505050925050509081526020016040518091039020604051602001808280546001816001161561010002031660029004801561046c5780601f1061044a57610100808354040283529182019161046c565b820191906000526020600020905b815481529060010190602001808311610458575b50509150506040516020818303038152906040528051906020012014156104ca576040518060400160405280600e81526020017f48617368204e6f7420466f756e64000000000000000000000000000000000000815250905061058d565b6002838360405180838380828437808301925050509250505090815260200160405180910390208054600181600116156101000203166002900480601f0160208091040260200160405190810160405280929190818152602001828054600181600116156101000203166002900480156105855780601f1061055a57610100808354040283529160200191610585565b820191906000526020600020905b81548152906001019060200180831161056857829003601f168201915b505050505090505b92915050565b606060405160200180600001905060405160208183030381529060405280519060200120600384846040518083838082843780830192505050925050509081526020016040518091039020604051602001808280546001816001161561010002031660029004801561063c5780601f1061061a57610100808354040283529182019161063c565b820191906000526020600020905b815481529060010190602001808311610628575b505091505060405160208183030381529060405280519060200120141561069a576040518060400160405280601781526020017f4d61726b2773205265636f7264204e6f7420466f756e64000000000000000000815250905061075d565b6003838360405180838380828437808301925050509250505090815260200160405180910390208054600181600116156101000203166002900480601f0160208091040260200160405190810160405280929190818152602001828054600181600116156101000203166002900480156107555780601f1061072a57610100808354040283529160200191610755565b820191906000526020600020905b81548152906001019060200180831161073857829003601f168201915b505050505090505b92915050565b828054600181600116156101000203166002900490600052602060002090601f016020900481019282601f106107a457803560ff19168380011785556107d2565b828001600101855582156107d2579182015b828111156107d15782358255916020019190600101906107b6565b5b5090506107df91906107e3565b5090565b61080591905b808211156108015760008160009055506001016107e9565b5090565b9056fea265627a7a723158208143d49637e51cbdcdd5a314f27b0022012c2bc5c609669c691a5d43e79ee87e64736f6c634300051000325265636f7264204e6f7420466f756e6420416761696e73742054686973204b6579a265627a7a72315820883917c813faaaf9abbe413b528cf32c0d0bfc535f92cbcde69390c1d724113a64736f6c63430005100032",
  "source": "// SPDX-License-Identifier: MIT\npragma solidity >=0.4.21 <0.7.0;\n\nimport \"./Section.sol\";\n\ncontract Course {\n    \n    mapping(string => address) CoursesData;\n    \n    function InsertNewSectionsData(\n        string calldata _courseKey,\n        string calldata _sectionKey,\n        string calldata _hash,\n        string calldata _data) external\n    {\n        if( CoursesData[_courseKey] != address(0) )\n        {\n            Section sec = Section(CoursesData[_courseKey]);\n            sec.SetData(_sectionKey, _hash, _data);\n        }\n        else{\n            Section sec = new Section();\n            sec.SetData(_sectionKey, _hash, _data);\n            CoursesData[_courseKey] = address(sec);\n        }\n    }\n    \n    \n    function GetHash(string calldata _courseKey, string calldata _sectionKey) external view returns (string memory)\n    {\n        if( CoursesData[_courseKey] != address(0) )\n        {\n           Section s = Section(CoursesData[_courseKey]);\n           return s.GetHash(_sectionKey);\n        }\n        else{\n            return \"Record Not Found Against This Key\";\n        }\n    }\n    \n    function GetMarksRecord(string calldata _courseKey, string calldata _sectionKey) external view returns (string memory)\n    {\n        if( CoursesData[_courseKey] != address(0) )\n        {\n           Section s = Section(CoursesData[_courseKey]);\n           return s.GetMarksRecord(_sectionKey);\n        }\n        else{\n            return \"Record Not Found Against This Key\";\n        }\n    }\n    \n}",
  "sourcePath": "E:/Zain/8th Semester/FYP/FYP SMART Contracts/Final Structure/contracts/Course.sol",
  "compiler": {
    "name": "solc",
    "version": "0.5.16+commit.9c3226ce.Emscripten.clang"
  },
  "schemaVersion": "3.0.22",
  "updatedAt": "2020-06-29T18:43:15.309Z",
  "networkType": "ethereum",
  "devdoc": {
    "methods": {}
  },
  "userdoc": {
    "methods": {}
  }
}