{
  "contractName": "Course",
  "abi": [
    {
      "constant": false,
      "inputs": [
        {
          "internalType": "string",
          "name": "_courseKey",
          "type": "string"
        },
        {
          "internalType": "string",
          "name": "_sectionKey",
          "type": "string"
        },
        {
          "internalType": "string",
          "name": "_hash",
          "type": "string"
        },
        {
          "internalType": "string",
          "name": "_data",
          "type": "string"
        }
      ],
      "name": "InsertNewSectionsData",
      "outputs": [],
      "payable": false,
      "stateMutability": "nonpayable",
      "type": "function"
    },
    {
      "constant": true,
      "inputs": [
        {
          "internalType": "string",
          "name": "_courseKey",
          "type": "string"
        },
        {
          "internalType": "string",
          "name": "_sectionKey",
          "type": "string"
        }
      ],
      "name": "GetHash",
      "outputs": [
        {
          "internalType": "string",
          "name": "",
          "type": "string"
        }
      ],
      "payable": false,
      "stateMutability": "view",
      "type": "function"
    },
    {
      "constant": true,
      "inputs": [
        {
          "internalType": "string",
          "name": "_courseKey",
          "type": "string"
        },
        {
          "internalType": "string",
          "name": "_sectionKey",
          "type": "string"
        }
      ],
      "name": "GetMarksRecord",
      "outputs": [
        {
          "internalType": "string",
          "name": "",
          "type": "string"
        }
      ],
      "payable": false,
      "stateMutability": "view",
      "type": "function"
    },
    {
      "constant": false,
      "inputs": [
        {
          "internalType": "string",
          "name": "_courseKey",
          "type": "string"
        },
        {
          "internalType": "string",
          "name": "_sectionKey",
          "type": "string"
        },
        {
          "internalType": "string",
          "name": "_hash",
          "type": "string"
        },
        {
          "internalType": "string",
          "name": "_data",
          "type": "string"
        }
      ],
      "name": "InsertNewSectionsGrades",
      "outputs": [],
      "payable": false,
      "stateMutability": "nonpayable",
      "type": "function"
    },
    {
      "constant": true,
      "inputs": [
        {
          "internalType": "string",
          "name": "_courseKey",
          "type": "string"
        },
        {
          "internalType": "string",
          "name": "_sectionKey",
          "type": "string"
        }
      ],
      "name": "GetGradesHash",
      "outputs": [
        {
          "internalType": "string",
          "name": "",
          "type": "string"
        }
      ],
      "payable": false,
      "stateMutability": "view",
      "type": "function"
    },
    {
      "constant": true,
      "inputs": [
        {
          "internalType": "string",
          "name": "_courseKey",
          "type": "string"
        },
        {
          "internalType": "string",
          "name": "_sectionKey",
          "type": "string"
        }
      ],
      "name": "GetGradesRecord",
      "outputs": [
        {
          "internalType": "string",
          "name": "",
          "type": "string"
        }
      ],
      "payable": false,
      "stateMutability": "view",
      "type": "function"
    }
  ],
  "bytecode": "0x608060405234801561001057600080fd5b506121d8806100206000396000f3fe608060405234801561001057600080fd5b50600436106100625760003560e01c806317ad3114146100675780635ecf2d79146101ae57806360838938146102f557806374bf19241461046d578063ccd735d7146105b4578063ce48fbd8146106fb575b600080fd5b6101336004803603604081101561007d57600080fd5b810190808035906020019064010000000081111561009a57600080fd5b8201836020820111156100ac57600080fd5b803590602001918460018302840111640100000000831117156100ce57600080fd5b9091929391929390803590602001906401000000008111156100ef57600080fd5b82018360208201111561010157600080fd5b8035906020019184600183028401116401000000008311171561012357600080fd5b9091929391929390505050610873565b6040518080602001828103825283818151815260200191508051906020019080838360005b83811015610173578082015181840152602081019050610158565b50505050905090810190601f1680156101a05780820380516001836020036101000a031916815260200191505b509250505060405180910390f35b61027a600480360360408110156101c457600080fd5b81019080803590602001906401000000008111156101e157600080fd5b8201836020820111156101f357600080fd5b8035906020019184600183028401116401000000008311171561021557600080fd5b90919293919293908035906020019064010000000081111561023657600080fd5b82018360208201111561024857600080fd5b8035906020019184600183028401116401000000008311171561026a57600080fd5b9091929391929390505050610ade565b6040518080602001828103825283818151815260200191508051906020019080838360005b838110156102ba57808201518184015260208101905061029f565b50505050905090810190601f1680156102e75780820380516001836020036101000a031916815260200191505b509250505060405180910390f35b61046b6004803603608081101561030b57600080fd5b810190808035906020019064010000000081111561032857600080fd5b82018360208201111561033a57600080fd5b8035906020019184600183028401116401000000008311171561035c57600080fd5b90919293919293908035906020019064010000000081111561037d57600080fd5b82018360208201111561038f57600080fd5b803590602001918460018302840111640100000000831117156103b157600080fd5b9091929391929390803590602001906401000000008111156103d257600080fd5b8201836020820111156103e457600080fd5b8035906020019184600183028401116401000000008311171561040657600080fd5b90919293919293908035906020019064010000000081111561042757600080fd5b82018360208201111561043957600080fd5b8035906020019184600183028401116401000000008311171561045b57600080fd5b9091929391929390505050610d48565b005b6105396004803603604081101561048357600080fd5b81019080803590602001906401000000008111156104a057600080fd5b8201836020820111156104b257600080fd5b803590602001918460018302840111640100000000831117156104d457600080fd5b9091929391929390803590602001906401000000008111156104f557600080fd5b82018360208201111561050757600080fd5b8035906020019184600183028401116401000000008311171561052957600080fd5b90919293919293905050506110b1565b6040518080602001828103825283818151815260200191508051906020019080838360005b8381101561057957808201518184015260208101905061055e565b50505050905090810190601f1680156105a65780820380516001836020036101000a031916815260200191505b509250505060405180910390f35b610680600480360360408110156105ca57600080fd5b81019080803590602001906401000000008111156105e757600080fd5b8201836020820111156105f957600080fd5b8035906020019184600183028401116401000000008311171561061b57600080fd5b90919293919293908035906020019064010000000081111561063c57600080fd5b82018360208201111561064e57600080fd5b8035906020019184600183028401116401000000008311171561067057600080fd5b909192939192939050505061131b565b6040518080602001828103825283818151815260200191508051906020019080838360005b838110156106c05780820151818401526020810190506106a5565b50505050905090810190601f1680156106ed5780820380516001836020036101000a031916815260200191505b509250505060405180910390f35b6108716004803603608081101561071157600080fd5b810190808035906020019064010000000081111561072e57600080fd5b82018360208201111561074057600080fd5b8035906020019184600183028401116401000000008311171561076257600080fd5b90919293919293908035906020019064010000000081111561078357600080fd5b82018360208201111561079557600080fd5b803590602001918460018302840111640100000000831117156107b757600080fd5b9091929391929390803590602001906401000000008111156107d857600080fd5b8201836020820111156107ea57600080fd5b8035906020019184600183028401116401000000008311171561080c57600080fd5b90919293919293908035906020019064010000000081111561082d57600080fd5b82018360208201111561083f57600080fd5b8035906020019184600183028401116401000000008311171561086157600080fd5b9091929391929390505050611586565b005b6060600073ffffffffffffffffffffffffffffffffffffffff1660018686604051808383808284378083019250505092505050908152602001604051809103902060009054906101000a900473ffffffffffffffffffffffffffffffffffffffff1673ffffffffffffffffffffffffffffffffffffffff1614610aba57600060018686604051808383808284378083019250505092505050908152602001604051809103902060009054906101000a900473ffffffffffffffffffffffffffffffffffffffff1690508073ffffffffffffffffffffffffffffffffffffffff166377ad6ed585856040518363ffffffff1660e01b815260040180806020018281038252848482818152602001925080828437600081840152601f19601f820116905080830192505050935050505060006040518083038186803b1580156109b957600080fd5b505afa1580156109cd573d6000803e3d6000fd5b505050506040513d6000823e3d601f19601f8201168201806040525060208110156109f757600080fd5b8101908080516040519392919084640100000000821115610a1757600080fd5b83820191506020820185811115610a2d57600080fd5b8251866001820283011164010000000082111715610a4a57600080fd5b8083526020830192505050908051906020019080838360005b83811015610a7e578082015181840152602081019050610a63565b50505050905090810190601f168015610aab5780820380516001836020036101000a031916815260200191505b50604052505050915050610ad6565b60405180606001604052806028815260200161217c6028913990505b949350505050565b6060600073ffffffffffffffffffffffffffffffffffffffff1660008686604051808383808284378083019250505092505050908152602001604051809103902060009054906101000a900473ffffffffffffffffffffffffffffffffffffffff1673ffffffffffffffffffffffffffffffffffffffff1614610d24576000808686604051808383808284378083019250505092505050908152602001604051809103902060009054906101000a900473ffffffffffffffffffffffffffffffffffffffff1690508073ffffffffffffffffffffffffffffffffffffffff166377ad6ed585856040518363ffffffff1660e01b815260040180806020018281038252848482818152602001925080828437600081840152601f19601f820116905080830192505050935050505060006040518083038186803b158015610c2357600080fd5b505afa158015610c37573d6000803e3d6000fd5b505050506040513d6000823e3d601f19601f820116820180604052506020811015610c6157600080fd5b8101908080516040519392919084640100000000821115610c8157600080fd5b83820191506020820185811115610c9757600080fd5b8251866001820283011164010000000082111715610cb457600080fd5b8083526020830192505050908051906020019080838360005b83811015610ce8578082015181840152602081019050610ccd565b50505050905090810190601f168015610d155780820380516001836020036101000a031916815260200191505b50604052505050915050610d40565b60405180606001604052806021815260200161215b6021913990505b949350505050565b600073ffffffffffffffffffffffffffffffffffffffff1660008989604051808383808284378083019250505092505050908152602001604051809103902060009054906101000a900473ffffffffffffffffffffffffffffffffffffffff1673ffffffffffffffffffffffffffffffffffffffff1614610f13576000808989604051808383808284378083019250505092505050908152602001604051809103902060009054906101000a900473ffffffffffffffffffffffffffffffffffffffff1690508073ffffffffffffffffffffffffffffffffffffffff16630af7b84a8888888888886040518763ffffffff1660e01b81526004018080602001806020018060200184810384528a8a82818152602001925080828437600081840152601f19601f8201169050808301925050508481038352888882818152602001925080828437600081840152601f19601f8201169050808301925050508481038252868682818152602001925080828437600081840152601f19601f8201169050808301925050509950505050505050505050600060405180830381600087803b158015610ef557600080fd5b505af1158015610f09573d6000803e3d6000fd5b50505050506110a7565b6000604051610f21906118f0565b604051809103906000f080158015610f3d573d6000803e3d6000fd5b5090508073ffffffffffffffffffffffffffffffffffffffff16630af7b84a8888888888886040518763ffffffff1660e01b81526004018080602001806020018060200184810384528a8a82818152602001925080828437600081840152601f19601f8201169050808301925050508481038352888882818152602001925080828437600081840152601f19601f8201169050808301925050508481038252868682818152602001925080828437600081840152601f19601f8201169050808301925050509950505050505050505050600060405180830381600087803b15801561102757600080fd5b505af115801561103b573d6000803e3d6000fd5b505050508060008a8a604051808383808284378083019250505092505050908152602001604051809103902060006101000a81548173ffffffffffffffffffffffffffffffffffffffff021916908373ffffffffffffffffffffffffffffffffffffffff160217905550505b5050505050505050565b6060600073ffffffffffffffffffffffffffffffffffffffff1660008686604051808383808284378083019250505092505050908152602001604051809103902060009054906101000a900473ffffffffffffffffffffffffffffffffffffffff1673ffffffffffffffffffffffffffffffffffffffff16146112f7576000808686604051808383808284378083019250505092505050908152602001604051809103902060009054906101000a900473ffffffffffffffffffffffffffffffffffffffff1690508073ffffffffffffffffffffffffffffffffffffffff1663c2164dce85856040518363ffffffff1660e01b815260040180806020018281038252848482818152602001925080828437600081840152601f19601f820116905080830192505050935050505060006040518083038186803b1580156111f657600080fd5b505afa15801561120a573d6000803e3d6000fd5b505050506040513d6000823e3d601f19601f82011682018060405250602081101561123457600080fd5b810190808051604051939291908464010000000082111561125457600080fd5b8382019150602082018581111561126a57600080fd5b825186600182028301116401000000008211171561128757600080fd5b8083526020830192505050908051906020019080838360005b838110156112bb5780820151818401526020810190506112a0565b50505050905090810190601f1680156112e85780820380516001836020036101000a031916815260200191505b50604052505050915050611313565b60405180606001604052806021815260200161215b6021913990505b949350505050565b6060600073ffffffffffffffffffffffffffffffffffffffff1660018686604051808383808284378083019250505092505050908152602001604051809103902060009054906101000a900473ffffffffffffffffffffffffffffffffffffffff1673ffffffffffffffffffffffffffffffffffffffff161461156257600060018686604051808383808284378083019250505092505050908152602001604051809103902060009054906101000a900473ffffffffffffffffffffffffffffffffffffffff1690508073ffffffffffffffffffffffffffffffffffffffff1663c2164dce85856040518363ffffffff1660e01b815260040180806020018281038252848482818152602001925080828437600081840152601f19601f820116905080830192505050935050505060006040518083038186803b15801561146157600080fd5b505afa158015611475573d6000803e3d6000fd5b505050506040513d6000823e3d601f19601f82011682018060405250602081101561149f57600080fd5b81019080805160405193929190846401000000008211156114bf57600080fd5b838201915060208201858111156114d557600080fd5b82518660018202830111640100000000821117156114f257600080fd5b8083526020830192505050908051906020019080838360005b8381101561152657808201518184015260208101905061150b565b50505050905090810190601f1680156115535780820380516001836020036101000a031916815260200191505b5060405250505091505061157e565b60405180606001604052806028815260200161217c6028913990505b949350505050565b600073ffffffffffffffffffffffffffffffffffffffff1660018989604051808383808284378083019250505092505050908152602001604051809103902060009054906101000a900473ffffffffffffffffffffffffffffffffffffffff1673ffffffffffffffffffffffffffffffffffffffff161461175257600060018989604051808383808284378083019250505092505050908152602001604051809103902060009054906101000a900473ffffffffffffffffffffffffffffffffffffffff1690508073ffffffffffffffffffffffffffffffffffffffff16630af7b84a8888888888886040518763ffffffff1660e01b81526004018080602001806020018060200184810384528a8a82818152602001925080828437600081840152601f19601f8201169050808301925050508481038352888882818152602001925080828437600081840152601f19601f8201169050808301925050508481038252868682818152602001925080828437600081840152601f19601f8201169050808301925050509950505050505050505050600060405180830381600087803b15801561173457600080fd5b505af1158015611748573d6000803e3d6000fd5b50505050506118e6565b6000604051611760906118f0565b604051809103906000f08015801561177c573d6000803e3d6000fd5b5090508073ffffffffffffffffffffffffffffffffffffffff16630af7b84a8888888888886040518763ffffffff1660e01b81526004018080602001806020018060200184810384528a8a82818152602001925080828437600081840152601f19601f8201169050808301925050508481038352888882818152602001925080828437600081840152601f19601f8201169050808301925050508481038252868682818152602001925080828437600081840152601f19601f8201169050808301925050509950505050505050505050600060405180830381600087803b15801561186657600080fd5b505af115801561187a573d6000803e3d6000fd5b505050508060018a8a604051808383808284378083019250505092505050908152602001604051809103902060006101000a81548173ffffffffffffffffffffffffffffffffffffffff021916908373ffffffffffffffffffffffffffffffffffffffff160217905550505b5050505050505050565b61085d806118fe8339019056fe608060405234801561001057600080fd5b5061083d806100206000396000f3fe608060405234801561001057600080fd5b50600436106100415760003560e01c80630af7b84a1461004657806377ad6ed514610169578063c2164dce1461025b575b600080fd5b6101676004803603606081101561005c57600080fd5b810190808035906020019064010000000081111561007957600080fd5b82018360208201111561008b57600080fd5b803590602001918460018302840111640100000000831117156100ad57600080fd5b9091929391929390803590602001906401000000008111156100ce57600080fd5b8201836020820111156100e057600080fd5b8035906020019184600183028401116401000000008311171561010257600080fd5b90919293919293908035906020019064010000000081111561012357600080fd5b82018360208201111561013557600080fd5b8035906020019184600183028401116401000000008311171561015757600080fd5b909192939192939050505061034d565b005b6101e06004803603602081101561017f57600080fd5b810190808035906020019064010000000081111561019c57600080fd5b8201836020820111156101ae57600080fd5b803590602001918460018302840111640100000000831117156101d057600080fd5b90919293919293905050506103c3565b6040518080602001828103825283818151815260200191508051906020019080838360005b83811015610220578082015181840152602081019050610205565b50505050905090810190601f16801561024d5780820380516001836020036101000a031916815260200191505b509250505060405180910390f35b6102d26004803603602081101561027157600080fd5b810190808035906020019064010000000081111561028e57600080fd5b8201836020820111156102a057600080fd5b803590602001918460018302840111640100000000831117156102c257600080fd5b9091929391929390505050610593565b6040518080602001828103825283818151815260200191508051906020019080838360005b838110156103125780820151818401526020810190506102f7565b50505050905090810190601f16801561033f5780820380516001836020036101000a031916815260200191505b509250505060405180910390f35b83836002888860405180838380828437808301925050509250505090815260200160405180910390209190610383929190610763565b50818160038888604051808383808284378083019250505092505050908152602001604051809103902091906103ba929190610763565b50505050505050565b606060405160200180600001905060405160208183030381529060405280519060200120600284846040518083838082843780830192505050925050509081526020016040518091039020604051602001808280546001816001161561010002031660029004801561046c5780601f1061044a57610100808354040283529182019161046c565b820191906000526020600020905b815481529060010190602001808311610458575b50509150506040516020818303038152906040528051906020012014156104ca576040518060400160405280600e81526020017f48617368204e6f7420466f756e64000000000000000000000000000000000000815250905061058d565b6002838360405180838380828437808301925050509250505090815260200160405180910390208054600181600116156101000203166002900480601f0160208091040260200160405190810160405280929190818152602001828054600181600116156101000203166002900480156105855780601f1061055a57610100808354040283529160200191610585565b820191906000526020600020905b81548152906001019060200180831161056857829003601f168201915b505050505090505b92915050565b606060405160200180600001905060405160208183030381529060405280519060200120600384846040518083838082843780830192505050925050509081526020016040518091039020604051602001808280546001816001161561010002031660029004801561063c5780601f1061061a57610100808354040283529182019161063c565b820191906000526020600020905b815481529060010190602001808311610628575b505091505060405160208183030381529060405280519060200120141561069a576040518060400160405280601781526020017f4d61726b2773205265636f7264204e6f7420466f756e64000000000000000000815250905061075d565b6003838360405180838380828437808301925050509250505090815260200160405180910390208054600181600116156101000203166002900480601f0160208091040260200160405190810160405280929190818152602001828054600181600116156101000203166002900480156107555780601f1061072a57610100808354040283529160200191610755565b820191906000526020600020905b81548152906001019060200180831161073857829003601f168201915b505050505090505b92915050565b828054600181600116156101000203166002900490600052602060002090601f016020900481019282601f106107a457803560ff19168380011785556107d2565b828001600101855582156107d2579182015b828111156107d15782358255916020019190600101906107b6565b5b5090506107df91906107e3565b5090565b61080591905b808211156108015760008160009055506001016107e9565b5090565b9056fea265627a7a723158208143d49637e51cbdcdd5a314f27b0022012c2bc5c609669c691a5d43e79ee87e64736f6c634300051000325265636f7264204e6f7420466f756e6420416761696e73742054686973204b6579477261646573205265636f7264204e6f7420466f756e6420416761696e73742054686973204b6579a265627a7a72315820c11eaeb21bef5436342241af6ea5844862b00e1217e87c292ab0f4f255d8746464736f6c63430005100032",
  "source": "// SPDX-License-Identifier: MIT\npragma solidity >=0.4.21 <0.7.0;\n\nimport \"./Section.sol\";\n\ncontract Course {\n    \n    mapping(string => address) CoursesData;\n    mapping(string => address) CourseGrades;\n    \n    function InsertNewSectionsData(\n        string calldata _courseKey,\n        string calldata _sectionKey,\n        string calldata _hash,\n        string calldata _data) external\n    {\n        if( CoursesData[_courseKey] != address(0) )\n        {\n            Section sec = Section(CoursesData[_courseKey]);\n            sec.SetData(_sectionKey, _hash, _data);\n        }\n        else{\n            Section sec = new Section();\n            sec.SetData(_sectionKey, _hash, _data);\n            CoursesData[_courseKey] = address(sec);\n        }\n    }\n    \n    \n    function GetHash(string calldata _courseKey, string calldata _sectionKey) external view returns (string memory)\n    {\n        if( CoursesData[_courseKey] != address(0) )\n        {\n           Section s = Section(CoursesData[_courseKey]);\n           return s.GetHash(_sectionKey);\n        }\n        else{\n            return \"Record Not Found Against This Key\";\n        }\n    }\n    \n    function GetMarksRecord(string calldata _courseKey, string calldata _sectionKey) external view returns (string memory)\n    {\n        if( CoursesData[_courseKey] != address(0) )\n        {\n           Section s = Section(CoursesData[_courseKey]);\n           return s.GetMarksRecord(_sectionKey);\n        }\n        else{\n            return \"Record Not Found Against This Key\";\n        }\n    }\n\n    /////////////////////////////////////////////////////////////////////////////////////\n\n    function InsertNewSectionsGrades(\n        string calldata _courseKey,\n        string calldata _sectionKey,\n        string calldata _hash,\n        string calldata _data) external\n    {\n        if( CourseGrades[_courseKey] != address(0) )\n        {\n            Section sec = Section(CourseGrades[_courseKey]);\n            sec.SetData(_sectionKey, _hash, _data);\n        }\n        else{\n            Section sec = new Section();\n            sec.SetData(_sectionKey, _hash, _data);\n            CourseGrades[_courseKey] = address(sec);\n        }\n    }\n    \n     //////////////////////////////\n     \n    \n    function GetGradesHash(string calldata _courseKey, string calldata _sectionKey) external view returns (string memory)\n    {\n        if( CourseGrades[_courseKey] != address(0) )\n        {\n           Section s = Section(CourseGrades[_courseKey]);\n           return s.GetHash(_sectionKey);\n        }\n        else{\n            return \"Grades Record Not Found Against This Key\";\n        }\n    }\n    \n    function GetGradesRecord(string calldata _courseKey, string calldata _sectionKey) external view returns (string memory)\n    {\n        if( CourseGrades[_courseKey] != address(0) )\n        {\n           Section s = Section(CourseGrades[_courseKey]);\n           return s.GetMarksRecord(_sectionKey);\n        }\n        else{\n            return \"Grades Record Not Found Against This Key\";\n        }\n    }\n    \n}",
  "sourcePath": "E:/Zain/8th Semester/FYP/FYP SMART Contracts/Final Structure/contracts/Course.sol",
  "compiler": {
    "name": "solc",
    "version": "0.5.16+commit.9c3226ce.Emscripten.clang"
  },
  "schemaVersion": "3.0.22",
  "updatedAt": "2020-07-03T17:41:37.591Z",
  "networkType": "ethereum",
  "devdoc": {
    "methods": {}
  },
  "userdoc": {
    "methods": {
      "GetGradesHash(string,string)": {
        "notice": "///////////////////////////"
      },
      "InsertNewSectionsGrades(string,string,string,string)": {
        "notice": "//////////////////////////////////////////////////////////////////////////////////"
      }
    }
  }
}