{
  "contractName": "MyContract",
  "abi": [
    {
      "constant": true,
      "inputs": [
        {
          "internalType": "string",
          "name": "",
          "type": "string"
        }
      ],
      "name": "Data",
      "outputs": [
        {
          "internalType": "string",
          "name": "",
          "type": "string"
        }
      ],
      "payable": false,
      "stateMutability": "view",
      "type": "function"
    },
    {
      "constant": false,
      "inputs": [
        {
          "internalType": "string",
          "name": "_attr",
          "type": "string"
        },
        {
          "internalType": "string",
          "name": "_record",
          "type": "string"
        }
      ],
      "name": "SetData",
      "outputs": [],
      "payable": false,
      "stateMutability": "nonpayable",
      "type": "function"
    },
    {
      "constant": true,
      "inputs": [
        {
          "internalType": "string",
          "name": "_attr",
          "type": "string"
        }
      ],
      "name": "GetData",
      "outputs": [
        {
          "internalType": "string",
          "name": "",
          "type": "string"
        }
      ],
      "payable": false,
      "stateMutability": "view",
      "type": "function"
    }
  ],
  "bytecode": "0x608060405234801561001057600080fd5b506105e1806100206000396000f3fe608060405234801561001057600080fd5b50600436106100415760003560e01c80634ced0a2614610046578063802fb06814610114578063e8e349d914610206575b600080fd5b6101126004803603604081101561005c57600080fd5b810190808035906020019064010000000081111561007957600080fd5b82018360208201111561008b57600080fd5b803590602001918460018302840111640100000000831117156100ad57600080fd5b9091929391929390803590602001906401000000008111156100ce57600080fd5b8201836020820111156100e057600080fd5b8035906020019184600183028401116401000000008311171561010257600080fd5b909192939192939050505061033a565b005b61018b6004803603602081101561012a57600080fd5b810190808035906020019064010000000081111561014757600080fd5b82018360208201111561015957600080fd5b8035906020019184600183028401116401000000008311171561017b57600080fd5b9091929391929390505050610377565b6040518080602001828103825283818151815260200191508051906020019080838360005b838110156101cb5780820151818401526020810190506101b0565b50505050905090810190601f1680156101f85780820380516001836020036101000a031916815260200191505b509250505060405180910390f35b6102bf6004803603602081101561021c57600080fd5b810190808035906020019064010000000081111561023957600080fd5b82018360208201111561024b57600080fd5b8035906020019184600183028401116401000000008311171561026d57600080fd5b91908080601f016020809104026020016040519081016040528093929190818152602001838380828437600081840152601f19601f820116905080830192505050505050509192919290505050610441565b6040518080602001828103825283818151815260200191508051906020019080838360005b838110156102ff5780820151818401526020810190506102e4565b50505050905090810190601f16801561032c5780820380516001836020036101000a031916815260200191505b509250505060405180910390f35b81816000868660405180838380828437808301925050509250505090815260200160405180910390209190610370929190610507565b5050505050565b60606000838360405180838380828437808301925050509250505090815260200160405180910390208054600181600116156101000203166002900480601f0160208091040260200160405190810160405280929190818152602001828054600181600116156101000203166002900480156104345780601f1061040957610100808354040283529160200191610434565b820191906000526020600020905b81548152906001019060200180831161041757829003601f168201915b5050505050905092915050565b6000818051602081018201805184825260208301602085012081835280955050505050506000915090508054600181600116156101000203166002900480601f0160208091040260200160405190810160405280929190818152602001828054600181600116156101000203166002900480156104ff5780601f106104d4576101008083540402835291602001916104ff565b820191906000526020600020905b8154815290600101906020018083116104e257829003601f168201915b505050505081565b828054600181600116156101000203166002900490600052602060002090601f016020900481019282601f1061054857803560ff1916838001178555610576565b82800160010185558215610576579182015b8281111561057557823582559160200191906001019061055a565b5b5090506105839190610587565b5090565b6105a991905b808211156105a557600081600090555060010161058d565b5090565b9056fea265627a7a7231582061ac7579f89e3cff478311170a132e35326db4ad84d92b50a19083b79caf0e4b64736f6c63430005100032",
  "source": "pragma solidity >=0.4.21 <0.7.0;\n\ncontract MyContract {\n   \n    mapping(string => string) public Data;\n    \n    // function SetData(string calldata _attr, string calldata _hash, string calldata _record) external\n    // {\n    //     Data[_attr] = append(_hash, _record);\n    // }\n\n    function SetData(string calldata _attr, string calldata _record) external\n    {\n        Data[_attr] = _record;\n    }\n    \n    // function append(string memory _str1, string memory _str2) internal pure returns (string memory) \n    // {\n    //     return string(abi.encodePacked(_str1,\" \", _str2));\n    // }\n    \n    \n    function GetData(string calldata _attr) external view returns (string memory)\n    {\n        return Data[_attr];\n    }\n}\n\n\n      \n    // var text = string;\n\n    // console.log(\"Normal .length : \"+ text.length);\n\n    // var enc = encryption.EncryptData(text);\n\n    // console.log(\"encypted .length : \"+ enc.length);\n\n    // var dec = encryption.DecryptData(enc);\n\n    // console.log(\"decypted .length : \"+ dec.length);\n",
  "sourcePath": "E:/Zain/8th Semester/FYP/Blockchain Bootcamp Course/WEB3 JS/For Testing web3 + ganache + truffle/contracts/MyContract.sol",
  "compiler": {
    "name": "solc",
    "version": "0.5.16+commit.9c3226ce.Emscripten.clang"
  },
  "schemaVersion": "3.0.22",
  "updatedAt": "2020-06-23T11:11:37.642Z",
  "networkType": "ethereum",
  "devdoc": {
    "methods": {}
  },
  "userdoc": {
    "methods": {}
  }
}